{
  "_format": "hh-sol-artifact-1",
  "contractName": "WeedRegistry",
  "sourceName": "contracts/WeedRegistry.sol",
  "abi": [
    {
      "anonymous": false,
      "inputs": [
        {
          "indexed": true,
          "internalType": "uint256",
          "name": "id",
          "type": "uint256"
        },
        {
          "indexed": true,
          "internalType": "address",
          "name": "uploader",
          "type": "address"
        },
        {
          "indexed": false,
          "internalType": "string",
          "name": "weedType",
          "type": "string"
        },
        {
          "indexed": false,
          "internalType": "uint256",
          "name": "timestamp",
          "type": "uint256"
        }
      ],
      "name": "DetectionStored",
      "type": "event"
    },
    {
      "inputs": [
        {
          "internalType": "uint256",
          "name": "",
          "type": "uint256"
        }
      ],
      "name": "detections",
      "outputs": [
        {
          "internalType": "uint256",
          "name": "id",
          "type": "uint256"
        },
        {
          "internalType": "string",
          "name": "ipfsHash",
          "type": "string"
        },
        {
          "internalType": "string",
          "name": "weedType",
          "type": "string"
        },
        {
          "internalType": "uint256",
          "name": "confidence",
          "type": "uint256"
        },
        {
          "internalType": "uint256",
          "name": "timestamp",
          "type": "uint256"
        },
        {
          "internalType": "address",
          "name": "uploader",
          "type": "address"
        }
      ],
      "stateMutability": "view",
      "type": "function"
    },
    {
      "inputs": [
        {
          "internalType": "uint256",
          "name": "_id",
          "type": "uint256"
        }
      ],
      "name": "getDetection",
      "outputs": [
        {
          "components": [
            {
              "internalType": "uint256",
              "name": "id",
              "type": "uint256"
            },
            {
              "internalType": "string",
              "name": "ipfsHash",
              "type": "string"
            },
            {
              "internalType": "string",
              "name": "weedType",
              "type": "string"
            },
            {
              "internalType": "uint256",
              "name": "confidence",
              "type": "uint256"
            },
            {
              "internalType": "uint256",
              "name": "timestamp",
              "type": "uint256"
            },
            {
              "internalType": "address",
              "name": "uploader",
              "type": "address"
            }
          ],
          "internalType": "struct WeedRegistry.Detection",
          "name": "",
          "type": "tuple"
        }
      ],
      "stateMutability": "view",
      "type": "function"
    },
    {
      "inputs": [],
      "name": "getDetectionCount",
      "outputs": [
        {
          "internalType": "uint256",
          "name": "",
          "type": "uint256"
        }
      ],
      "stateMutability": "view",
      "type": "function"
    },
    {
      "inputs": [
        {
          "internalType": "address",
          "name": "_user",
          "type": "address"
        }
      ],
      "name": "getDetectionsByUser",
      "outputs": [
        {
          "internalType": "uint256[]",
          "name": "",
          "type": "uint256[]"
        }
      ],
      "stateMutability": "view",
      "type": "function"
    },
    {
      "inputs": [
        {
          "internalType": "string",
          "name": "_ipfsHash",
          "type": "string"
        },
        {
          "internalType": "string",
          "name": "_weedType",
          "type": "string"
        },
        {
          "internalType": "uint256",
          "name": "_confidence",
          "type": "uint256"
        }
      ],
      "name": "storeDetection",
      "outputs": [],
      "stateMutability": "nonpayable",
      "type": "function"
    },
    {
      "inputs": [
        {
          "internalType": "address",
          "name": "",
          "type": "address"
        },
        {
          "internalType": "uint256",
          "name": "",
          "type": "uint256"
        }
      ],
      "name": "userDetections",
      "outputs": [
        {
          "internalType": "uint256",
          "name": "",
          "type": "uint256"
        }
      ],
      "stateMutability": "view",
      "type": "function"
    }
  ],
  "bytecode": "0x608060405234801561001057600080fd5b506111e8806100206000396000f3fe608060405234801561001057600080fd5b50600436106100625760003560e01c8063179344a5146100675780634f15518a146100975780638116b000146100b3578063874a1db7146100e3578063e8fe776a14610101578063fd3fff2b14610136575b600080fd5b610081600480360381019061007c919061088c565b610166565b60405161008e91906108db565b60405180910390f35b6100b160048036038101906100ac9190610a3c565b610197565b005b6100cd60048036038101906100c89190610ac7565b61035e565b6040516100da9190610bb2565b60405180910390f35b6100eb6103f5565b6040516100f891906108db565b60405180910390f35b61011b60048036038101906101169190610bd4565b610401565b60405161012d96959493929190610c8f565b60405180910390f35b610150600480360381019061014b9190610bd4565b61057d565b60405161015d9190610de7565b60405180910390f35b6001602052816000526040600020818154811061018257600080fd5b90600052602060002001600091509150505481565b60008080549050905060006040518060c001604052808381526020018681526020018581526020018481526020014281526020013373ffffffffffffffffffffffffffffffffffffffff16815250908060018154018082558091505060019003906000526020600020906006020160009091909190915060008201518160000155602082015181600101908161022d9190611015565b5060408201518160020190816102439190611015565b50606082015181600301556080820151816004015560a08201518160050160006101000a81548173ffffffffffffffffffffffffffffffffffffffff021916908373ffffffffffffffffffffffffffffffffffffffff1602179055505050600160003373ffffffffffffffffffffffffffffffffffffffff1673ffffffffffffffffffffffffffffffffffffffff1681526020019081526020016000208190806001815401808255809150506001900390600052602060002001600090919091909150553373ffffffffffffffffffffffffffffffffffffffff16817f95e6b4dd9bf2671ea5c5bac9b2096bb67bd75e2475d201df5c9d9f513b194cc285426040516103509291906110e7565b60405180910390a350505050565b6060600160008373ffffffffffffffffffffffffffffffffffffffff1673ffffffffffffffffffffffffffffffffffffffff1681526020019081526020016000208054806020026020016040519081016040528092919081815260200182805480156103e957602002820191906000526020600020905b8154815260200190600101908083116103d5575b50505050509050919050565b60008080549050905090565b6000818154811061041157600080fd5b906000526020600020906006020160009150905080600001549080600101805461043a90610e38565b80601f016020809104026020016040519081016040528092919081815260200182805461046690610e38565b80156104b35780601f10610488576101008083540402835291602001916104b3565b820191906000526020600020905b81548152906001019060200180831161049657829003601f168201915b5050505050908060020180546104c890610e38565b80601f01602080910402602001604051908101604052809291908181526020018280546104f490610e38565b80156105415780601f1061051657610100808354040283529160200191610541565b820191906000526020600020905b81548152906001019060200180831161052457829003601f168201915b5050505050908060030154908060040154908060050160009054906101000a900473ffffffffffffffffffffffffffffffffffffffff16905086565b610585610798565b60008054905082106105cc576040517f08c379a00000000000000000000000000000000000000000000000000000000081526004016105c390611163565b60405180910390fd5b600082815481106105e0576105df611183565b5b90600052602060002090600602016040518060c00160405290816000820154815260200160018201805461061390610e38565b80601f016020809104026020016040519081016040528092919081815260200182805461063f90610e38565b801561068c5780601f106106615761010080835404028352916020019161068c565b820191906000526020600020905b81548152906001019060200180831161066f57829003601f168201915b505050505081526020016002820180546106a590610e38565b80601f01602080910402602001604051908101604052809291908181526020018280546106d190610e38565b801561071e5780601f106106f35761010080835404028352916020019161071e565b820191906000526020600020905b81548152906001019060200180831161070157829003601f168201915b5050505050815260200160038201548152602001600482015481526020016005820160009054906101000a900473ffffffffffffffffffffffffffffffffffffffff1673ffffffffffffffffffffffffffffffffffffffff1673ffffffffffffffffffffffffffffffffffffffff16815250509050919050565b6040518060c001604052806000815260200160608152602001606081526020016000815260200160008152602001600073ffffffffffffffffffffffffffffffffffffffff1681525090565b6000604051905090565b600080fd5b600080fd5b600073ffffffffffffffffffffffffffffffffffffffff82169050919050565b6000610823826107f8565b9050919050565b61083381610818565b811461083e57600080fd5b50565b6000813590506108508161082a565b92915050565b6000819050919050565b61086981610856565b811461087457600080fd5b50565b60008135905061088681610860565b92915050565b600080604083850312156108a3576108a26107ee565b5b60006108b185828601610841565b92505060206108c285828601610877565b9150509250929050565b6108d581610856565b82525050565b60006020820190506108f060008301846108cc565b92915050565b600080fd5b600080fd5b6000601f19601f8301169050919050565b7f4e487b7100000000000000000000000000000000000000000000000000000000600052604160045260246000fd5b61094982610900565b810181811067ffffffffffffffff8211171561096857610967610911565b5b80604052505050565b600061097b6107e4565b90506109878282610940565b919050565b600067ffffffffffffffff8211156109a7576109a6610911565b5b6109b082610900565b9050602081019050919050565b82818337600083830152505050565b60006109df6109da8461098c565b610971565b9050828152602081018484840111156109fb576109fa6108fb565b5b610a068482856109bd565b509392505050565b600082601f830112610a2357610a226108f6565b5b8135610a338482602086016109cc565b91505092915050565b600080600060608486031215610a5557610a546107ee565b5b600084013567ffffffffffffffff811115610a7357610a726107f3565b5b610a7f86828701610a0e565b935050602084013567ffffffffffffffff811115610aa057610a9f6107f3565b5b610aac86828701610a0e565b9250506040610abd86828701610877565b9150509250925092565b600060208284031215610add57610adc6107ee565b5b6000610aeb84828501610841565b91505092915050565b600081519050919050565b600082825260208201905092915050565b6000819050602082019050919050565b610b2981610856565b82525050565b6000610b3b8383610b20565b60208301905092915050565b6000602082019050919050565b6000610b5f82610af4565b610b698185610aff565b9350610b7483610b10565b8060005b83811015610ba5578151610b8c8882610b2f565b9750610b9783610b47565b925050600181019050610b78565b5085935050505092915050565b60006020820190508181036000830152610bcc8184610b54565b905092915050565b600060208284031215610bea57610be96107ee565b5b6000610bf884828501610877565b91505092915050565b600081519050919050565b600082825260208201905092915050565b60005b83811015610c3b578082015181840152602081019050610c20565b60008484015250505050565b6000610c5282610c01565b610c5c8185610c0c565b9350610c6c818560208601610c1d565b610c7581610900565b840191505092915050565b610c8981610818565b82525050565b600060c082019050610ca460008301896108cc565b8181036020830152610cb68188610c47565b90508181036040830152610cca8187610c47565b9050610cd960608301866108cc565b610ce660808301856108cc565b610cf360a0830184610c80565b979650505050505050565b600082825260208201905092915050565b6000610d1a82610c01565b610d248185610cfe565b9350610d34818560208601610c1d565b610d3d81610900565b840191505092915050565b610d5181610818565b82525050565b600060c083016000830151610d6f6000860182610b20565b5060208301518482036020860152610d878282610d0f565b91505060408301518482036040860152610da18282610d0f565b9150506060830151610db66060860182610b20565b506080830151610dc96080860182610b20565b5060a0830151610ddc60a0860182610d48565b508091505092915050565b60006020820190508181036000830152610e018184610d57565b905092915050565b7f4e487b7100000000000000000000000000000000000000000000000000000000600052602260045260246000fd5b60006002820490506001821680610e5057607f821691505b602082108103610e6357610e62610e09565b5b50919050565b60008190508160005260206000209050919050565b60006020601f8301049050919050565b600082821b905092915050565b600060088302610ecb7fffffffffffffffffffffffffffffffffffffffffffffffffffffffffffffffff82610e8e565b610ed58683610e8e565b95508019841693508086168417925050509392505050565b6000819050919050565b6000610f12610f0d610f0884610856565b610eed565b610856565b9050919050565b6000819050919050565b610f2c83610ef7565b610f40610f3882610f19565b848454610e9b565b825550505050565b600090565b610f55610f48565b610f60818484610f23565b505050565b5b81811015610f8457610f79600082610f4d565b600181019050610f66565b5050565b601f821115610fc957610f9a81610e69565b610fa384610e7e565b81016020851015610fb2578190505b610fc6610fbe85610e7e565b830182610f65565b50505b505050565b600082821c905092915050565b6000610fec60001984600802610fce565b1980831691505092915050565b60006110058383610fdb565b9150826002028217905092915050565b61101e82610c01565b67ffffffffffffffff81111561103757611036610911565b5b6110418254610e38565b61104c828285610f88565b600060209050601f83116001811461107f576000841561106d578287015190505b6110778582610ff9565b8655506110df565b601f19841661108d86610e69565b60005b828110156110b557848901518255600182019150602085019450602081019050611090565b868310156110d257848901516110ce601f891682610fdb565b8355505b6001600288020188555050505b505050505050565b600060408201905081810360008301526111018185610c47565b905061111060208301846108cc565b9392505050565b7f446574656374696f6e20646f6573206e6f742065786973740000000000000000600082015250565b600061114d601883610c0c565b915061115882611117565b602082019050919050565b6000602082019050818103600083015261117c81611140565b9050919050565b7f4e487b7100000000000000000000000000000000000000000000000000000000600052603260045260246000fdfea264697066735822122048371fbb7b143d254a1bb6b6730f1c3d8e4024c099216d762975f5a62e00444b64736f6c63430008180033",
  "linkReferences": {},
  "deployedLinkReferences": {}
}